S00D0000536C6176652E737265631C
S11300000C9431000C9446000C9446000C94460069
S11300100C9446000C9446000C9446000C94460044
S11300200C9446000C9446000C9446000C94460034
S11300300C9446000C9446000C9446000C94460024
S11300400C9446000C9446000C9446000C94460014
S11300500C9446003E0247025002590262026B02AF
S1130060740211241FBECFE5D8E0DEBFCDBF10E07F
S1130070A0E6B0E0E8E8F5E002C005900D92A83AE9
S1130080B107D9F70E940F020C94C2020C9400002D
S1130090442319F04130C9F10895813091F028F0DA
S11300A08230D9F0833029F108952AB381E090E0B9
S11300B002C0880F991F6A95E2F7809582238ABB54
S11300C0089527B381E090E002C0880F991F6A95D4
S11300D0E2F78095822387BB089524B381E090E002
S11300E002C0880F991F6A95E2F78095822384BB2A
S11300F0089521B381E090E002C0880F991F6A95AA
S1130100E2F78095822381BB0895813089F028F03D
S11301108230C9F0833011F108952AB381E090E070
S113012002C0880F991F6A95E2F7822B8ABB089553
S113013027B381E090E002C0880F991F6A95E2F727
S1130140822B87BB089524B381E090E002C0880F1E
S1130150991F6A95E2F7822B84BB089521B381E04D
S113016090E002C0880F991F6A95E2F7822B81BB49
S11301700895442319F04130C9F10895813091F074
S113018028F08230D9F0833029F108952BB381E02F
S113019090E002C0880F991F6A95E2F78095822348
S11301A08BBB089528B381E090E002C0880F991FAB
S11301B06A95E2F78095822388BB089525B381E090
S11301C090E002C0880F991F6A95E2F78095822318
S11301D085BB089522B381E090E002C0880F991F87
S11301E06A95E2F78095822382BB0895813089F075
S11301F028F08230C9F0833011F108952BB381E0E7
S113020090E002C0880F991F6A95E2F7822B8BBB9E
S1130210089528B381E090E002C0880F991F6A9581
S1130220E2F7822B88BB089525B381E090E002C0F9
S1130230880F991F6A95E2F7822B85BB089522B334
S113024081E090E002C0880F991F6A95E2F7822B43
S113025082BB0895CF93C82F40E061E081E00E9403
S1130260B90040E062E081E00E94B90040E063E050
S113027081E00E94B9008BB39C2F907F8F70892BF3
S11302808BBB41E063E081E00E94B9008FE99FE00D
S11302900197F1F700C0000040E063E081E00E94B4
S11302A0B9002BB330E1C39FC0011124922F9F707A
S11302B0892B8BBB41E063E081E00E94B9008FE9A8
S11302C09FE00197F1F700C0000040E063E081E0A7
S11302D00E94B9008FE39FE10197F1F700C000008D
S11302E0CF91089541E061E081E00E94480041E03F
S11302F062E081E00E94480041E063E081E00E9406
S1130300480041E064E080E00E94480041E065E08C
S113031080E00E94480041E066E080E00E944800DE
S113032041E067E080E00E9448002FEF81EE94E016
S1130330215080409040E1F700C0000082E00E941C
S11303402A0183E30E942A0182E30E942A0188E2AF
S11303500E942A018CE00E942A0181E00E942A0165
S113036086E00E942A010895CF93C82F41E061E0FE
S113037081E00E94B90040E062E081E00E94B9009F
S113038040E063E081E00E94B9008BB39C2F907F32
S11303908F70892B8BBB41E063E081E00E94B90040
S11303A08FE99FE00197F1F700C0000040E063E0AF
S11303B081E00E94B9002BB330E1C39FC001112436
S11303C0922F9F70892B8BBB41E063E081E00E94F8
S11303D0B9008FE99FE00197F1F700C0000040E009
S11303E063E081E00E94B9008FE39FE10197F1F798
S11303F000C00000CF910895CF93DF93EC01888172
S1130400882331F021960E94B40189918111FBCF98
S1130410DF91CF91089581E00E942A0108950E94FE
S113042072010E940B020E947B020E948D020E94B4
S11304309F020E94B1020E940B0280E690E00E949B
S1130440FC012FEF83ED90E3215080409040E1F7D1
S113045000C000000E940B020E94B802EFE3FCE916
S11304603197F1F700C0000090E0FC013197E730CC
S1130470F10590F7E65DFF4F0C94BC020E940B025D
S113048086E690E00E94FC010E948102E5CF0E9472
S11304900B028EE690E00E94FC010E948702DCCFF2
S11304A00E940B0287E790E00E94FC010E949302E5
S11304B0D3CF0E940B028FE790E00E94FC010E94C0
S11304C09902CACF0E940B0288E890E00E94FC01C6
S11304D00E94A502C1CF0E940B0280E990E00E9415
S11304E0FC010E94AB02B8CF0E940B0289E990E0A4
S11304F00E94FC01B1CF41E062E082E00E9448002A
S1130500089541E062E082E00E94B900089540E06D
S113051062E082E00E94B900089541E067E082E071
S11305200E944800089541E067E082E00E94B9001B
S1130530089540E067E082E00E94B900089541E038
S113054063E083E00E944800089541E063E083E0B3
S11305500E94B900089540E063E083E00E94B9007E
S11305600895BD98BE9ABF98BC9883E48DB9089548
S1130570779BFECF8FB10895EE0FFF1F0590F49186
S10B0580E02D0994F894FFCF6B
S1130588536C617665006C656430206F6E006C6531
S11305986430206F6666006C656431206F6E006C91
S11305A8656431206F6666006C656432206F6E0086
S11305B86C656432206F666600696E76616C696486
S10B05C820656E7472790000D5
S9030000FC
