:100000000C942A000C943F000C943F000C943F0089
:100010000C943F000C943F000C943F000C943F0064
:100020000C943F000C943F000C943F000C943F0054
:100030000C943F000C943F000C943F000C943F0044
:100040000C943F000C943F000C943F000C943F0034
:100050000C943F0011241FBECFE5D8E0DEBFCDBF1A
:1000600010E0A0E6B0E0E2EAF6E002C005900D92F2
:10007000A63BB107D9F70E9408020C944F030C94D9
:100080000000442319F04130C9F10895813091F006
:1000900028F08230D9F0833029F108952AB381E025
:1000A00090E002C0880F991F6A95E2F7809582233D
:1000B0008ABB089527B381E090E002C0880F991FA2
:1000C0006A95E2F78095822387BB089524B381E087
:1000D00090E002C0880F991F6A95E2F7809582230D
:1000E00084BB089521B381E090E002C0880F991F7E
:1000F0006A95E2F78095822381BB0895813089F06B
:1001000028F08230C9F0833011F108952AB381E0DC
:1001100090E002C0880F991F6A95E2F7822B8ABB94
:10012000089527B381E090E002C0880F991F6A9577
:10013000E2F7822B87BB089524B381E090E002C0F0
:10014000880F991F6A95E2F7822B84BB089521B32B
:1001500081E090E002C0880F991F6A95E2F7822B38
:1001600081BB0895442319F04130C9F108958130CD
:1001700091F028F08230D9F0833029F108952BB323
:1001800081E090E002C0880F991F6A95E2F78095A0
:1001900082238BBB089528B381E090E002C0880FD2
:1001A000991F6A95E2F78095822388BB089525B34D
:1001B00081E090E002C0880F991F6A95E2F7809570
:1001C000822385BB089522B381E090E002C0880FAE
:1001D000991F6A95E2F78095822382BB089581304A
:1001E00089F028F08230C9F0833011F108952BB3E3
:1001F00081E090E002C0880F991F6A95E2F7822B98
:100200008BBB089528B381E090E002C0880F991F4E
:100210006A95E2F7822B88BB089525B381E090E0D0
:1002200002C0880F991F6A95E2F7822B85BB08955B
:1002300022B381E090E002C0880F991F6A95E2F72F
:10024000822B82BB0895CF93C82F40E061E081E00C
:100250000E94B20040E062E081E00E94B20040E013
:1002600063E081E00E94B2008BB39C2F907F8F707F
:10027000892B8BBB41E063E081E00E94B2008FE9F3
:100280009FE00197F1F700C0000040E063E081E0EB
:100290000E94B2002BB330E1C39FC0011124922F02
:1002A0009F70892B8BBB41E063E081E00E94B2002C
:1002B0008FE99FE00197F1F700C0000040E063E0A4
:1002C00081E00E94B2008FE39FE10197F1F700C047
:1002D0000000CF91089541E061E081E00E9441007B
:1002E00041E062E081E00E94410041E063E081E0A2
:1002F0000E94410041E064E080E00E94410041E052
:1003000065E080E00E94410041E066E080E00E94FC
:10031000410041E067E080E00E9441002FEF81EE64
:1003200094E0215080409040E1F700C0000082E05E
:100330000E94230183E30E94230182E30E942301A0
:1003400088E20E9423018CE00E94230181E00E9448
:10035000230186E00E9423010895CF93C82F41E036
:1003600061E081E00E94B20040E062E081E00E9432
:10037000B20040E063E081E00E94B2008BB39C2FAA
:10038000907F8F70892B8BBB41E063E081E00E94FE
:10039000B2008FE99FE00197F1F700C0000040E054
:1003A00063E081E00E94B2002BB330E1C39FC00143
:1003B0001124922F9F70892B8BBB41E063E081E079
:1003C0000E94B2008FE99FE00197F1F700C00000A2
:1003D00040E063E081E00E94B2008FE39FE101977B
:1003E000F1F700C00000CF910895CF93DF93EC01A7
:1003F0008881882331F021960E94AD018991811175
:10040000FBCFDF91CF91089581E00E9423010895F1
:10041000CF93DF93CDB7DEB72A970FB6F894DEBF40
:100420000FBECDBF0E946B010E9404020E94DA023F
:100430000E94E5020E94E7020E94040280E690E02A
:100440000E94F5012FEF83ED90E321508040904012
:10045000E1F700C000000E940402CE0101960E9454
:10046000F3028FE39CE90197F1F700C0000067E613
:1004700070E0CE0101960E941303882379F081E099
:100480000E94E1020E9404028EE690E00E94F501C3
:100490006AE0CE0101960E944503DFCF6FE770E06E
:1004A000CE0101960E941303882379F082E00E9416
:1004B000E1020E9404028EE690E00E94F5016AE0EB
:1004C000CE0101960E944503C8CF67E870E0CE01D7
:1004D00001960E941303882379F083E00E94E102D1
:1004E0000E9404028EE690E00E94F5016AE0CE01CF
:1004F00001960E944503B1CF6EE870E0CE010196EF
:100500000E941303882379F084E00E94E1020E9494
:1005100004028EE690E00E94F5016AE0CE010196A9
:100520000E9445039ACF66E970E0CE0101960E94D1
:100530001303882379F085E00E94E1020E940402FF
:100540008EE690E00E94F5016AE0CE0101960E94DD
:10055000450383CF6DE970E0CE0101960E9413033D
:10056000882379F086E00E94E1020E9404028EE670
:1005700090E00E94F5016AE0CE0101960E944503D9
:100580006CCF87E00E94E1020E94040285EA90E0BD
:100590000E94F50180EC0E942301CE0101960E9489
:1005A000F5016AE0CE0101960E94450380E80E94B1
:1005B000230153CFBD9ABE98BF9ABC9A83E58DB9EB
:1005C00008958FB9779BFECF0895C498089588E168
:1005D0008AB986E880BD87E689B910BC08955F9B1B
:1005E000FECF8CB10895EF92FF920F931F93CF939C
:1005F0007C01C0E08C010E94EF02F701808383320E
:1006000051F0CF5F87010C0F111D0E94EF02F8011E
:1006100080838332B1F7F8011082CF911F910F913F
:10062000FF90EF900895DC01FC0101900020E9F7B4
:100630003197CF018A1B9B0BFB0101900020E9F74A
:100640003197E61BF70B8E131AC0FB0180818823BC
:10065000D9F09C91891315C090E006C0FD01E20F0E
:10066000F31F208142130FC09F5F292F30E0FB0151
:10067000E20FF31F40814111F1CF81E0089580E046
:10068000089580E0089580E00895662339F0FC0124
:10069000860F911D1192E817F907E1F70895F89474
:0206A000FFCF8A
:1006A2004D6173746572006C6564306F6E004461F5
:1006B2007461207472616E736D6974746564006C28
:1006C2006564306F6666006C6564316F6E006C65E0
:1006D20064316F6666006C6564326F6E006C6564CF
:1006E200326F666600696E76616C696420656E744D
:0606F20072793A200000BD
:00000001FF
